{
  "contractName": "VotingSystem",
  "abi": [
    {
      "inputs": [],
      "stateMutability": "nonpayable",
      "type": "constructor"
    },
    {
      "anonymous": false,
      "inputs": [
        {
          "indexed": false,
          "internalType": "uint256",
          "name": "id",
          "type": "uint256"
        },
        {
          "indexed": false,
          "internalType": "string",
          "name": "name",
          "type": "string"
        }
      ],
      "name": "ContestantAdded",
      "type": "event"
    },
    {
      "anonymous": false,
      "inputs": [
        {
          "indexed": false,
          "internalType": "uint256",
          "name": "id",
          "type": "uint256"
        },
        {
          "indexed": false,
          "internalType": "uint256",
          "name": "createdTime",
          "type": "uint256"
        }
      ],
      "name": "ElectionCreated",
      "type": "event"
    },
    {
      "anonymous": false,
      "inputs": [
        {
          "indexed": false,
          "internalType": "uint256",
          "name": "id",
          "type": "uint256"
        },
        {
          "indexed": false,
          "internalType": "uint256",
          "name": "endedTime",
          "type": "uint256"
        }
      ],
      "name": "ElectionEnded",
      "type": "event"
    },
    {
      "anonymous": false,
      "inputs": [
        {
          "indexed": false,
          "internalType": "uint256",
          "name": "id",
          "type": "uint256"
        },
        {
          "indexed": false,
          "internalType": "uint256",
          "name": "startedTime",
          "type": "uint256"
        }
      ],
      "name": "ElectionStarted",
      "type": "event"
    },
    {
      "anonymous": false,
      "inputs": [
        {
          "indexed": false,
          "internalType": "bool",
          "name": "isActive",
          "type": "bool"
        }
      ],
      "name": "RegistrationPhaseChanged",
      "type": "event"
    },
    {
      "anonymous": false,
      "inputs": [
        {
          "indexed": false,
          "internalType": "string",
          "name": "voterCnic",
          "type": "string"
        },
        {
          "indexed": false,
          "internalType": "uint256",
          "name": "contestantId",
          "type": "uint256"
        }
      ],
      "name": "VoteCast",
      "type": "event"
    },
    {
      "anonymous": false,
      "inputs": [
        {
          "indexed": false,
          "internalType": "string",
          "name": "cnic",
          "type": "string"
        },
        {
          "indexed": false,
          "internalType": "address",
          "name": "walletAddress",
          "type": "address"
        }
      ],
      "name": "VoterApproved",
      "type": "event"
    },
    {
      "anonymous": false,
      "inputs": [
        {
          "indexed": false,
          "internalType": "string",
          "name": "cnic",
          "type": "string"
        },
        {
          "indexed": false,
          "internalType": "address",
          "name": "walletAddress",
          "type": "address"
        }
      ],
      "name": "VoterRegistrationSubmitted",
      "type": "event"
    },
    {
      "anonymous": false,
      "inputs": [
        {
          "indexed": false,
          "internalType": "uint256",
          "name": "electionId",
          "type": "uint256"
        },
        {
          "indexed": false,
          "internalType": "uint256",
          "name": "winnerId",
          "type": "uint256"
        },
        {
          "indexed": false,
          "internalType": "uint256",
          "name": "voteCount",
          "type": "uint256"
        }
      ],
      "name": "WinnerDeclared",
      "type": "event"
    },
    {
      "inputs": [],
      "name": "admin",
      "outputs": [
        {
          "internalType": "address",
          "name": "",
          "type": "address"
        }
      ],
      "stateMutability": "view",
      "type": "function",
      "constant": true
    },
    {
      "inputs": [],
      "name": "contestantCount",
      "outputs": [
        {
          "internalType": "uint256",
          "name": "",
          "type": "uint256"
        }
      ],
      "stateMutability": "view",
      "type": "function",
      "constant": true
    },
    {
      "inputs": [
        {
          "internalType": "uint256",
          "name": "",
          "type": "uint256"
        }
      ],
      "name": "contestants",
      "outputs": [
        {
          "internalType": "uint256",
          "name": "id",
          "type": "uint256"
        },
        {
          "internalType": "string",
          "name": "name",
          "type": "string"
        },
        {
          "internalType": "uint256",
          "name": "age",
          "type": "uint256"
        },
        {
          "internalType": "string",
          "name": "cnic",
          "type": "string"
        },
        {
          "internalType": "string",
          "name": "qualification",
          "type": "string"
        },
        {
          "internalType": "uint256",
          "name": "voteCount",
          "type": "uint256"
        },
        {
          "internalType": "bool",
          "name": "isRegistered",
          "type": "bool"
        }
      ],
      "stateMutability": "view",
      "type": "function",
      "constant": true
    },
    {
      "inputs": [],
      "name": "currentElectionId",
      "outputs": [
        {
          "internalType": "uint256",
          "name": "",
          "type": "uint256"
        }
      ],
      "stateMutability": "view",
      "type": "function",
      "constant": true
    },
    {
      "inputs": [
        {
          "internalType": "uint256",
          "name": "",
          "type": "uint256"
        }
      ],
      "name": "elections",
      "outputs": [
        {
          "internalType": "uint256",
          "name": "id",
          "type": "uint256"
        },
        {
          "internalType": "enum VotingSystem.ElectionStatus",
          "name": "status",
          "type": "uint8"
        },
        {
          "internalType": "bool",
          "name": "isResultDeclared",
          "type": "bool"
        },
        {
          "internalType": "uint256",
          "name": "winnerId",
          "type": "uint256"
        },
        {
          "internalType": "uint256",
          "name": "createdTime",
          "type": "uint256"
        },
        {
          "internalType": "uint256",
          "name": "startedTime",
          "type": "uint256"
        },
        {
          "internalType": "uint256",
          "name": "endedTime",
          "type": "uint256"
        }
      ],
      "stateMutability": "view",
      "type": "function",
      "constant": true
    },
    {
      "inputs": [
        {
          "internalType": "uint256",
          "name": "",
          "type": "uint256"
        },
        {
          "internalType": "string",
          "name": "",
          "type": "string"
        }
      ],
      "name": "hasVotedInElection",
      "outputs": [
        {
          "internalType": "bool",
          "name": "",
          "type": "bool"
        }
      ],
      "stateMutability": "view",
      "type": "function",
      "constant": true
    },
    {
      "inputs": [
        {
          "internalType": "string",
          "name": "",
          "type": "string"
        }
      ],
      "name": "isPendingVoter",
      "outputs": [
        {
          "internalType": "bool",
          "name": "",
          "type": "bool"
        }
      ],
      "stateMutability": "view",
      "type": "function",
      "constant": true
    },
    {
      "inputs": [],
      "name": "isRegistrationPhaseActive",
      "outputs": [
        {
          "internalType": "bool",
          "name": "",
          "type": "bool"
        }
      ],
      "stateMutability": "view",
      "type": "function",
      "constant": true
    },
    {
      "inputs": [
        {
          "internalType": "uint256",
          "name": "",
          "type": "uint256"
        }
      ],
      "name": "pendingVoters",
      "outputs": [
        {
          "internalType": "string",
          "name": "",
          "type": "string"
        }
      ],
      "stateMutability": "view",
      "type": "function",
      "constant": true
    },
    {
      "inputs": [
        {
          "internalType": "address",
          "name": "",
          "type": "address"
        }
      ],
      "name": "registeredWallets",
      "outputs": [
        {
          "internalType": "bool",
          "name": "",
          "type": "bool"
        }
      ],
      "stateMutability": "view",
      "type": "function",
      "constant": true
    },
    {
      "inputs": [
        {
          "internalType": "string",
          "name": "",
          "type": "string"
        }
      ],
      "name": "voters",
      "outputs": [
        {
          "internalType": "string",
          "name": "cnic",
          "type": "string"
        },
        {
          "internalType": "address",
          "name": "walletAddress",
          "type": "address"
        },
        {
          "internalType": "bool",
          "name": "isRegistered",
          "type": "bool"
        },
        {
          "internalType": "bool",
          "name": "hasVoted",
          "type": "bool"
        },
        {
          "internalType": "bool",
          "name": "isApproved",
          "type": "bool"
        },
        {
          "internalType": "uint256",
          "name": "registrationTime",
          "type": "uint256"
        }
      ],
      "stateMutability": "view",
      "type": "function",
      "constant": true
    },
    {
      "inputs": [],
      "name": "startRegistrationPhase",
      "outputs": [],
      "stateMutability": "nonpayable",
      "type": "function"
    },
    {
      "inputs": [],
      "name": "stopRegistrationPhase",
      "outputs": [],
      "stateMutability": "nonpayable",
      "type": "function"
    },
    {
      "inputs": [
        {
          "internalType": "string",
          "name": "_cnic",
          "type": "string"
        }
      ],
      "name": "submitVoterRegistration",
      "outputs": [],
      "stateMutability": "nonpayable",
      "type": "function"
    },
    {
      "inputs": [
        {
          "internalType": "string",
          "name": "_cnic",
          "type": "string"
        }
      ],
      "name": "approveVoter",
      "outputs": [],
      "stateMutability": "nonpayable",
      "type": "function"
    },
    {
      "inputs": [
        {
          "internalType": "string",
          "name": "_cnic",
          "type": "string"
        }
      ],
      "name": "rejectVoter",
      "outputs": [],
      "stateMutability": "nonpayable",
      "type": "function"
    },
    {
      "inputs": [],
      "name": "getPendingVotersCount",
      "outputs": [
        {
          "internalType": "uint256",
          "name": "",
          "type": "uint256"
        }
      ],
      "stateMutability": "view",
      "type": "function",
      "constant": true
    },
    {
      "inputs": [
        {
          "internalType": "uint256",
          "name": "index",
          "type": "uint256"
        }
      ],
      "name": "getPendingVoterAtIndex",
      "outputs": [
        {
          "internalType": "string",
          "name": "",
          "type": "string"
        }
      ],
      "stateMutability": "view",
      "type": "function",
      "constant": true
    },
    {
      "inputs": [
        {
          "internalType": "string",
          "name": "_cnic",
          "type": "string"
        }
      ],
      "name": "getVoterStatus",
      "outputs": [
        {
          "internalType": "bool",
          "name": "isRegistered",
          "type": "bool"
        },
        {
          "internalType": "bool",
          "name": "isPending",
          "type": "bool"
        },
        {
          "internalType": "bool",
          "name": "isApproved",
          "type": "bool"
        },
        {
          "internalType": "uint256",
          "name": "registrationTime",
          "type": "uint256"
        }
      ],
      "stateMutability": "view",
      "type": "function",
      "constant": true
    },
    {
      "inputs": [
        {
          "internalType": "uint256",
          "name": "_electionId",
          "type": "uint256"
        },
        {
          "internalType": "string",
          "name": "_cnic",
          "type": "string"
        }
      ],
      "name": "hasVoterVotedInElection",
      "outputs": [
        {
          "internalType": "bool",
          "name": "",
          "type": "bool"
        }
      ],
      "stateMutability": "view",
      "type": "function",
      "constant": true
    },
    {
      "inputs": [
        {
          "internalType": "string",
          "name": "_name",
          "type": "string"
        },
        {
          "internalType": "uint256",
          "name": "_age",
          "type": "uint256"
        },
        {
          "internalType": "string",
          "name": "_cnic",
          "type": "string"
        },
        {
          "internalType": "string",
          "name": "_qualification",
          "type": "string"
        }
      ],
      "name": "addContestant",
      "outputs": [],
      "stateMutability": "nonpayable",
      "type": "function"
    },
    {
      "inputs": [],
      "name": "clearContestants",
      "outputs": [],
      "stateMutability": "nonpayable",
      "type": "function"
    },
    {
      "inputs": [
        {
          "internalType": "uint256[]",
          "name": "_contestantIds",
          "type": "uint256[]"
        }
      ],
      "name": "createElection",
      "outputs": [],
      "stateMutability": "nonpayable",
      "type": "function"
    },
    {
      "inputs": [
        {
          "internalType": "uint256",
          "name": "_electionId",
          "type": "uint256"
        }
      ],
      "name": "startElection",
      "outputs": [],
      "stateMutability": "nonpayable",
      "type": "function"
    },
    {
      "inputs": [
        {
          "internalType": "uint256",
          "name": "_electionId",
          "type": "uint256"
        }
      ],
      "name": "endElection",
      "outputs": [],
      "stateMutability": "nonpayable",
      "type": "function"
    },
    {
      "inputs": [
        {
          "internalType": "string",
          "name": "_voterCnic",
          "type": "string"
        },
        {
          "internalType": "uint256",
          "name": "_contestantId",
          "type": "uint256"
        }
      ],
      "name": "castVote",
      "outputs": [],
      "stateMutability": "nonpayable",
      "type": "function"
    },
    {
      "inputs": [
        {
          "internalType": "uint256",
          "name": "_contestantId",
          "type": "uint256"
        }
      ],
      "name": "getContestantDetails",
      "outputs": [
        {
          "internalType": "string",
          "name": "name",
          "type": "string"
        },
        {
          "internalType": "uint256",
          "name": "age",
          "type": "uint256"
        },
        {
          "internalType": "string",
          "name": "cnic",
          "type": "string"
        },
        {
          "internalType": "string",
          "name": "qualification",
          "type": "string"
        },
        {
          "internalType": "uint256",
          "name": "voteCount",
          "type": "uint256"
        }
      ],
      "stateMutability": "view",
      "type": "function",
      "constant": true
    },
    {
      "inputs": [
        {
          "internalType": "uint256",
          "name": "_electionId",
          "type": "uint256"
        }
      ],
      "name": "getElectionStatus",
      "outputs": [
        {
          "internalType": "enum VotingSystem.ElectionStatus",
          "name": "status",
          "type": "uint8"
        },
        {
          "internalType": "uint256",
          "name": "createdTime",
          "type": "uint256"
        },
        {
          "internalType": "uint256",
          "name": "startedTime",
          "type": "uint256"
        },
        {
          "internalType": "uint256",
          "name": "endedTime",
          "type": "uint256"
        }
      ],
      "stateMutability": "view",
      "type": "function",
      "constant": true
    },
    {
      "inputs": [
        {
          "internalType": "uint256",
          "name": "_electionId",
          "type": "uint256"
        },
        {
          "internalType": "uint256",
          "name": "_contestantId",
          "type": "uint256"
        }
      ],
      "name": "isContestantInElection",
      "outputs": [
        {
          "internalType": "bool",
          "name": "",
          "type": "bool"
        }
      ],
      "stateMutability": "view",
      "type": "function",
      "constant": true
    },
    {
      "inputs": [
        {
          "internalType": "uint256",
          "name": "_electionId",
          "type": "uint256"
        }
      ],
      "name": "declareWinner",
      "outputs": [],
      "stateMutability": "nonpayable",
      "type": "function"
    },
    {
      "inputs": [
        {
          "internalType": "uint256",
          "name": "_electionId",
          "type": "uint256"
        }
      ],
      "name": "getElectionResult",
      "outputs": [
        {
          "internalType": "bool",
          "name": "isResultDeclared",
          "type": "bool"
        },
        {
          "internalType": "uint256",
          "name": "winnerId",
          "type": "uint256"
        },
        {
          "internalType": "string",
          "name": "winnerName",
          "type": "string"
        },
        {
          "internalType": "uint256",
          "name": "winnerVotes",
          "type": "uint256"
        },
        {
          "internalType": "enum VotingSystem.ElectionStatus",
          "name": "status",
          "type": "uint8"
        },
        {
          "internalType": "uint256",
          "name": "createdTime",
          "type": "uint256"
        },
        {
          "internalType": "uint256",
          "name": "startedTime",
          "type": "uint256"
        },
        {
          "internalType": "uint256",
          "name": "endedTime",
          "type": "uint256"
        }
      ],
      "stateMutability": "view",
      "type": "function",
      "constant": true
    }
  ],
  "bytecode": "0x608060405234801561001057600080fd5b50336000806101000a81548173ffffffffffffffffffffffffffffffffffffffff021916908373ffffffffffffffffffffffffffffffffffffffff160217905550600060018190555060006002819055506145c0806100706000396000f3fe608060405234801561001057600080fd5b50600436106101e45760003560e01c80637709d9821161010f578063cd8fccf9116100a2578063e3b9e2fa11610071578063e3b9e2fa146105d3578063e70a7867146105ef578063f38fd4231461061f578063f851a4401461063d576101e4565b8063cd8fccf914610521578063dfd50f5214610551578063e01159c914610587578063e1bcf07b146105a3576101e4565b80639c98bcbb116100de5780639c98bcbb14610472578063a2a8d2ae1461048e578063b479d3a9146104c1578063c94d9256146104f1576101e4565b80637709d982146104125780637f281dc41461042e578063945493b01461044a57806398ecf2a014610454576101e4565b806336fdcd8b11610187578063613711c211610156578063613711c21461039e57806363ea5259146103bc5780636d32dc4b146103ec57806372f26e0314610408576101e4565b806336fdcd8b146102e35780633b1c88a2146102ff57806353fa2e64146103335780635e6fef0114610368576101e4565b806323fc4b36116101c357806323fc4b361461022d57806324785b9e1461026457806324a9267b146102975780632be7f441146102c7576101e4565b8062c2943c146101e95780630a4983ba14610205578063214d6c1e1461020f575b600080fd5b61020360048036038101906101fe9190612d18565b61065b565b005b61020d610900565b005b610217610ac8565b6040516102249190612d60565b60405180910390f35b61024760048036038101906102429190612d18565b610adb565b60405161025b989796959493929190612e91565b60405180910390f35b61027e60048036038101906102799190612d18565b610c5c565b60405161028e9493929190612f16565b60405180910390f35b6102b160048036038101906102ac9190612d18565b610caa565b6040516102be9190612f5b565b60405180910390f35b6102e160048036038101906102dc91906130b2565b610d56565b005b6102fd60048036038101906102f891906130b2565b61112d565b005b61031960048036038101906103149190612d18565b611405565b60405161032a9594939291906130fb565b60405180910390f35b61034d600480360381019061034891906130b2565b611643565b60405161035f969594939291906131a4565b60405180910390f35b610382600480360381019061037d9190612d18565b611764565b604051610395979695949392919061320c565b60405180910390f35b6103a66117c0565b6040516103b3919061327b565b60405180910390f35b6103d660048036038101906103d191906130b2565b6117c6565b6040516103e39190612d60565b60405180910390f35b61040660048036038101906104019190612d18565b6117fc565b005b6104106119dd565b005b61042c600480360381019061042791906130b2565b611ac0565b005b6104486004803603810190610443919061335e565b611c8f565b005b610452611ef8565b005b61045c611fdb565b604051610469919061327b565b60405180910390f35b61048c60048036038101906104879190612d18565b611fe1565b005b6104a860048036038101906104a391906130b2565b6121c2565b6040516104b894939291906133a7565b60405180910390f35b6104db60048036038101906104d69190613418565b612383565b6040516104e89190612d60565b60405180910390f35b61050b60048036038101906105069190613445565b6123a3565b6040516105189190612d60565b60405180910390f35b61053b600480360381019061053691906134a1565b6123ea565b6040516105489190612d60565b60405180910390f35b61056b60048036038101906105669190612d18565b612429565b60405161057e97969594939291906134e1565b60405180910390f35b6105a1600480360381019061059c9190613565565b612610565b005b6105bd60048036038101906105b89190612d18565b6127c8565b6040516105ca9190612f5b565b60405180910390f35b6105ed60048036038101906105e89190613620565b6128bf565b005b61060960048036038101906106049190613445565b612bfb565b6040516106169190612d60565b60405180910390f35b610627612c40565b604051610634919061327b565b60405180910390f35b610645612c4d565b604051610652919061367c565b60405180910390f35b60008054906101000a900473ffffffffffffffffffffffffffffffffffffffff1673ffffffffffffffffffffffffffffffffffffffff163373ffffffffffffffffffffffffffffffffffffffff16146106e9576040517f08c379a00000000000000000000000000000000000000000000000000000000081526004016106e090613709565b60405180910390fd5b600060066000838152602001908152602001600020905060028081111561071357610712612e1a565b5b8160010160009054906101000a900460ff16600281111561073757610736612e1a565b5b14610777576040517f08c379a000000000000000000000000000000000000000000000000000000000815260040161076e90613775565b60405180910390fd5b8060010160019054906101000a900460ff16156107c9576040517f08c379a00000000000000000000000000000000000000000000000000000000081526004016107c0906137e1565b60405180910390fd5b6000806000600190505b60025481116108555783600601600082815260200190815260200160002060009054906101000a900460ff1680156108205750826004600083815260200190815260200160002060050154115b1561084257600460008281526020019081526020016000206005015492508091505b808061084d90613830565b9150506107d3565b5060008111610899576040517f08c379a0000000000000000000000000000000000000000000000000000000008152600401610890906138c4565b60405180910390fd5b60018360010160016101000a81548160ff0219169083151502179055508083600201819055507f5f232421a69b09b9a293f4879042ee2db94a28bbfd7429b78bb575bce6bae9728482846040516108f2939291906138e4565b60405180910390a150505050565b60008054906101000a900473ffffffffffffffffffffffffffffffffffffffff1673ffffffffffffffffffffffffffffffffffffffff163373ffffffffffffffffffffffffffffffffffffffff161461098e576040517f08c379a000000000000000000000000000000000000000000000000000000000815260040161098590613709565b60405180910390fd5b600060015414806109e95750600160028111156109ae576109ad612e1a565b5b60066000600154815260200190815260200160002060010160009054906101000a900460ff1660028111156109e6576109e5612e1a565b5b14155b610a28576040517f08c379a0000000000000000000000000000000000000000000000000000000008152600401610a1f9061398d565b60405180910390fd5b6000600190505b6002548111610abd5760046000828152602001908152602001600020600080820160009055600182016000610a649190612c71565b6002820160009055600382016000610a7c9190612c71565b600482016000610a8c9190612c71565b60058201600090556006820160006101000a81549060ff021916905550508080610ab590613830565b915050610a2f565b506000600281905550565b600360009054906101000a900460ff1681565b6000806060600080600080600080600660008b815260200190815260200160002090508060010160019054906101000a900460ff1615610c0457600060046000836002015481526020019081526020016000209050600182600201548260010183600501548560010160009054906101000a900460ff16866003015487600401548860050154858054610b6d906139dc565b80601f0160208091040260200160405190810160405280929190818152602001828054610b99906139dc565b8015610be65780601f10610bbb57610100808354040283529160200191610be6565b820191906000526020600020905b815481529060010190602001808311610bc957829003601f168201915b50505050509550995099509950995099509950995099505050610c51565b60008060008360010160009054906101000a900460ff1684600301548560040154866005015460405180602001604052806000815250949392919098509850985098509850985098509850505b919395975091939597565b60008060008060006006600087815260200190815260200160002090508060010160009054906101000a900460ff168160030154826004015483600501549450945094509450509193509193565b60098181548110610cba57600080fd5b906000526020600020016000915090508054610cd5906139dc565b80601f0160208091040260200160405190810160405280929190818152602001828054610d01906139dc565b8015610d4e5780601f10610d2357610100808354040283529160200191610d4e565b820191906000526020600020905b815481529060010190602001808311610d3157829003601f168201915b505050505081565b600360009054906101000a900460ff16610da5576040517f08c379a0000000000000000000000000000000000000000000000000000000008152600401610d9c90613a59565b60405180910390fd5b6000815111610de9576040517f08c379a0000000000000000000000000000000000000000000000000000000008152600401610de090613ac5565b60405180910390fd5b600581604051610df99190613b21565b908152602001604051809103902060010160149054906101000a900460ff1615610e58576040517f08c379a0000000000000000000000000000000000000000000000000000000008152600401610e4f90613b84565b60405180910390fd5b600a81604051610e689190613b21565b908152602001604051809103902060009054906101000a900460ff1615610ec4576040517f08c379a0000000000000000000000000000000000000000000000000000000008152600401610ebb90613bf0565b60405180910390fd5b600760003373ffffffffffffffffffffffffffffffffffffffff1673ffffffffffffffffffffffffffffffffffffffff16815260200190815260200160002060009054906101000a900460ff1615610f51576040517f08c379a0000000000000000000000000000000000000000000000000000000008152600401610f4890613c82565b60405180910390fd5b600981908060018154018082558091505060019003906000526020600020016000909190919091509081610f859190613e4e565b506001600a82604051610f989190613b21565b908152602001604051809103902060006101000a81548160ff0219169083151502179055506040518060c001604052808281526020013373ffffffffffffffffffffffffffffffffffffffff168152602001600015158152602001600015158152602001600015158152602001428152506005826040516110199190613b21565b9081526020016040518091039020600082015181600001908161103c9190613e4e565b5060208201518160010160006101000a81548173ffffffffffffffffffffffffffffffffffffffff021916908373ffffffffffffffffffffffffffffffffffffffff16021790555060408201518160010160146101000a81548160ff02191690831515021790555060608201518160010160156101000a81548160ff02191690831515021790555060808201518160010160166101000a81548160ff02191690831515021790555060a082015181600201559050507f82de9194ad3b255c1073c63ddf632a2dacb15475fd2487d6e12f8aca6b617b108133604051611122929190613f20565b60405180910390a150565b60008054906101000a900473ffffffffffffffffffffffffffffffffffffffff1673ffffffffffffffffffffffffffffffffffffffff163373ffffffffffffffffffffffffffffffffffffffff16146111bb576040517f08c379a00000000000000000000000000000000000000000000000000000000081526004016111b290613709565b60405180910390fd5b600a816040516111cb9190613b21565b908152602001604051809103902060009054906101000a900460ff16611226576040517f08c379a000000000000000000000000000000000000000000000000000000000815260040161121d90613f9c565b60405180910390fd5b6005816040516112369190613b21565b908152602001604051809103902060010160149054906101000a900460ff1615611295576040517f08c379a000000000000000000000000000000000000000000000000000000000815260040161128c90613b84565b60405180910390fd5b60006005826040516112a79190613b21565b9081526020016040518091039020905060018160010160146101000a81548160ff02191690831515021790555060018160010160166101000a81548160ff0219169083151502179055506001600760008360010160009054906101000a900473ffffffffffffffffffffffffffffffffffffffff1673ffffffffffffffffffffffffffffffffffffffff1673ffffffffffffffffffffffffffffffffffffffff16815260200190815260200160002060006101000a81548160ff0219169083151502179055506000600a8360405161137f9190613b21565b908152602001604051809103902060006101000a81548160ff0219169083151502179055507f7ac35af280bf51a04b6e59a513b8a0411c8e9f173da2e0c20785396e4147008c828260010160009054906101000a900473ffffffffffffffffffffffffffffffffffffffff166040516113f9929190613f20565b60405180910390a15050565b606060006060806000806004600088815260200190815260200160002090508060060160009054906101000a900460ff16611475576040517f08c379a000000000000000000000000000000000000000000000000000000000815260040161146c90614008565b60405180910390fd5b80600101816002015482600301836004018460050154848054611497906139dc565b80601f01602080910402602001604051908101604052809291908181526020018280546114c3906139dc565b80156115105780601f106114e557610100808354040283529160200191611510565b820191906000526020600020905b8154815290600101906020018083116114f357829003601f168201915b50505050509450828054611523906139dc565b80601f016020809104026020016040519081016040528092919081815260200182805461154f906139dc565b801561159c5780601f106115715761010080835404028352916020019161159c565b820191906000526020600020905b81548152906001019060200180831161157f57829003601f168201915b505050505092508180546115af906139dc565b80601f01602080910402602001604051908101604052809291908181526020018280546115db906139dc565b80156116285780601f106115fd57610100808354040283529160200191611628565b820191906000526020600020905b81548152906001019060200180831161160b57829003601f168201915b50505050509150955095509550955095505091939590929450565b60058180516020810182018051848252602083016020850120818352809550505050505060009150905080600001805461167c906139dc565b80601f01602080910402602001604051908101604052809291908181526020018280546116a8906139dc565b80156116f55780601f106116ca576101008083540402835291602001916116f5565b820191906000526020600020905b8154815290600101906020018083116116d857829003601f168201915b5050505050908060010160009054906101000a900473ffffffffffffffffffffffffffffffffffffffff16908060010160149054906101000a900460ff16908060010160159054906101000a900460ff16908060010160169054906101000a900460ff16908060020154905086565b60066020528060005260406000206000915090508060000154908060010160009054906101000a900460ff16908060010160019054906101000a900460ff16908060020154908060030154908060040154908060050154905087565b60025481565b600a818051602081018201805184825260208301602085012081835280955050505050506000915054906101000a900460ff1681565b60008054906101000a900473ffffffffffffffffffffffffffffffffffffffff1673ffffffffffffffffffffffffffffffffffffffff163373ffffffffffffffffffffffffffffffffffffffff161461188a576040517f08c379a000000000000000000000000000000000000000000000000000000000815260040161188190613709565b60405180910390fd5b60008111801561189c57506001548111155b6118db576040517f08c379a00000000000000000000000000000000000000000000000000000000081526004016118d290614074565b60405180910390fd5b60006006600083815260200190815260200160002090506000600281111561190657611905612e1a565b5b8160010160009054906101000a900460ff16600281111561192a57611929612e1a565b5b1461196a576040517f08c379a0000000000000000000000000000000000000000000000000000000008152600401611961906140e0565b60405180910390fd5b60018160010160006101000a81548160ff0219169083600281111561199257611991612e1a565b5b02179055504281600401819055507fff6a30dd22f5e8b783044c7d895a6e8592b55c56f139978d44dc39daf596731f82426040516119d1929190614100565b60405180910390a15050565b60008054906101000a900473ffffffffffffffffffffffffffffffffffffffff1673ffffffffffffffffffffffffffffffffffffffff163373ffffffffffffffffffffffffffffffffffffffff1614611a6b576040517f08c379a0000000000000000000000000000000000000000000000000000000008152600401611a6290613709565b60405180910390fd5b6000600360006101000a81548160ff0219169083151502179055507fbf9814f2b8f316000c34495ec66cab2dd0e36ca69bdca77a5828157c96e22fab6000604051611ab69190612d60565b60405180910390a1565b60008054906101000a900473ffffffffffffffffffffffffffffffffffffffff1673ffffffffffffffffffffffffffffffffffffffff163373ffffffffffffffffffffffffffffffffffffffff1614611b4e576040517f08c379a0000000000000000000000000000000000000000000000000000000008152600401611b4590613709565b60405180910390fd5b600a81604051611b5e9190613b21565b908152602001604051809103902060009054906101000a900460ff16611bb9576040517f08c379a0000000000000000000000000000000000000000000000000000000008152600401611bb090613f9c565b60405180910390fd5b600581604051611bc99190613b21565b908152602001604051809103902060008082016000611be89190612c71565b6001820160006101000a81549073ffffffffffffffffffffffffffffffffffffffff02191690556001820160146101000a81549060ff02191690556001820160156101000a81549060ff02191690556001820160166101000a81549060ff0219169055600282016000905550506000600a82604051611c679190613b21565b908152602001604051809103902060006101000a81548160ff02191690831515021790555050565b60008054906101000a900473ffffffffffffffffffffffffffffffffffffffff1673ffffffffffffffffffffffffffffffffffffffff163373ffffffffffffffffffffffffffffffffffffffff1614611d1d576040517f08c379a0000000000000000000000000000000000000000000000000000000008152600401611d1490613709565b60405180910390fd5b600281511015611d62576040517f08c379a0000000000000000000000000000000000000000000000000000000008152600401611d599061419b565b60405180910390fd5b60016000815480929190611d7590613830565b919050555060006006600060015481526020019081526020016000209050600154816000018190555060008160010160006101000a81548160ff02191690836002811115611dc657611dc5612e1a565b5b021790555042816003018190555060005b8251811015611eb85760046000848381518110611df757611df66141bb565b5b6020026020010151815260200190815260200160002060060160009054906101000a900460ff16611e5d576040517f08c379a0000000000000000000000000000000000000000000000000000000008152600401611e5490614236565b60405180910390fd5b6001826006016000858481518110611e7857611e776141bb565b5b6020026020010151815260200190815260200160002060006101000a81548160ff0219169083151502179055508080611eb090613830565b915050611dd7565b507f9bd8efb2f619c1191776b58dd410ef81e29be036d21bb19c4e2e0261d2d5668160015442604051611eec929190614100565b60405180910390a15050565b60008054906101000a900473ffffffffffffffffffffffffffffffffffffffff1673ffffffffffffffffffffffffffffffffffffffff163373ffffffffffffffffffffffffffffffffffffffff1614611f86576040517f08c379a0000000000000000000000000000000000000000000000000000000008152600401611f7d90613709565b60405180910390fd5b6001600360006101000a81548160ff0219169083151502179055507fbf9814f2b8f316000c34495ec66cab2dd0e36ca69bdca77a5828157c96e22fab6001604051611fd19190612d60565b60405180910390a1565b60015481565b60008054906101000a900473ffffffffffffffffffffffffffffffffffffffff1673ffffffffffffffffffffffffffffffffffffffff163373ffffffffffffffffffffffffffffffffffffffff161461206f576040517f08c379a000000000000000000000000000000000000000000000000000000000815260040161206690613709565b60405180910390fd5b60008111801561208157506001548111155b6120c0576040517f08c379a00000000000000000000000000000000000000000000000000000000081526004016120b790614074565b60405180910390fd5b6000600660008381526020019081526020016000209050600160028111156120eb576120ea612e1a565b5b8160010160009054906101000a900460ff16600281111561210f5761210e612e1a565b5b1461214f576040517f08c379a0000000000000000000000000000000000000000000000000000000008152600401612146906142a2565b60405180910390fd5b60028160010160006101000a81548160ff0219169083600281111561217757612176612e1a565b5b02179055504281600501819055507f32e2c12037f9600b91a766ce53eab6909f3bdb865851cd9a8c7fafbdf249a9ce82426040516121b6929190614100565b60405180910390a15050565b60008060008060006005866040516121da9190613b21565b90815260200160405180910390206040518060c0016040529081600082018054612203906139dc565b80601f016020809104026020016040519081016040528092919081815260200182805461222f906139dc565b801561227c5780601f106122515761010080835404028352916020019161227c565b820191906000526020600020905b81548152906001019060200180831161225f57829003601f168201915b505050505081526020016001820160009054906101000a900473ffffffffffffffffffffffffffffffffffffffff1673ffffffffffffffffffffffffffffffffffffffff1673ffffffffffffffffffffffffffffffffffffffff1681526020016001820160149054906101000a900460ff161515151581526020016001820160159054906101000a900460ff161515151581526020016001820160169054906101000a900460ff1615151515815260200160028201548152505090508060400151600a8760405161234d9190613b21565b908152602001604051809103902060009054906101000a900460ff1682608001518360a001519450945094509450509193509193565b60076020528060005260406000206000915054906101000a900460ff1681565b600060086000848152602001908152602001600020826040516123c69190613b21565b908152602001604051809103902060009054906101000a900460ff16905092915050565b600060066000848152602001908152602001600020600601600083815260200190815260200160002060009054906101000a900460ff16905092915050565b6004602052806000526040600020600091509050806000015490806001018054612452906139dc565b80601f016020809104026020016040519081016040528092919081815260200182805461247e906139dc565b80156124cb5780601f106124a0576101008083540402835291602001916124cb565b820191906000526020600020905b8154815290600101906020018083116124ae57829003601f168201915b5050505050908060020154908060030180546124e6906139dc565b80601f0160208091040260200160405190810160405280929190818152602001828054612512906139dc565b801561255f5780601f106125345761010080835404028352916020019161255f565b820191906000526020600020905b81548152906001019060200180831161254257829003601f168201915b505050505090806004018054612574906139dc565b80601f01602080910402602001604051908101604052809291908181526020018280546125a0906139dc565b80156125ed5780601f106125c2576101008083540402835291602001916125ed565b820191906000526020600020905b8154815290600101906020018083116125d057829003601f168201915b5050505050908060050154908060060160009054906101000a900460ff16905087565b60008054906101000a900473ffffffffffffffffffffffffffffffffffffffff1673ffffffffffffffffffffffffffffffffffffffff163373ffffffffffffffffffffffffffffffffffffffff161461269e576040517f08c379a000000000000000000000000000000000000000000000000000000000815260040161269590613709565b60405180910390fd5b600260008154809291906126b190613830565b91905055506040518060e00160405280600254815260200185815260200184815260200183815260200182815260200160008152602001600115158152506004600060025481526020019081526020016000206000820151816000015560208201518160010190816127239190613e4e565b506040820151816002015560608201518160030190816127439190613e4e565b5060808201518160040190816127599190613e4e565b5060a0820151816005015560c08201518160060160006101000a81548160ff0219169083151502179055509050507f56f6c29d2eb99f40e2a206309dc37f2cff01a5755a4683e3c2b0ce22e5e3aa17600254856040516127ba9291906142c2565b60405180910390a150505050565b60606009805490508210612811576040517f08c379a00000000000000000000000000000000000000000000000000000000081526004016128089061433e565b60405180910390fd5b60098281548110612825576128246141bb565b5b90600052602060002001805461283a906139dc565b80601f0160208091040260200160405190810160405280929190818152602001828054612866906139dc565b80156128b35780601f10612888576101008083540402835291602001916128b3565b820191906000526020600020905b81548152906001019060200180831161289657829003601f168201915b50505050509050919050565b600154600160028111156128d6576128d5612e1a565b5b6006600083815260200190815260200160002060010160009054906101000a900460ff16600281111561290c5761290b612e1a565b5b1461294c576040517f08c379a0000000000000000000000000000000000000000000000000000000008152600401612943906142a2565b60405180910390fd5b600060058460405161295e9190613b21565b908152602001604051809103902090508060010160149054906101000a900460ff166129bf576040517f08c379a00000000000000000000000000000000000000000000000000000000081526004016129b6906143aa565b60405180910390fd5b3373ffffffffffffffffffffffffffffffffffffffff168160010160009054906101000a900473ffffffffffffffffffffffffffffffffffffffff1673ffffffffffffffffffffffffffffffffffffffff1614612a51576040517f08c379a0000000000000000000000000000000000000000000000000000000008152600401612a4890614416565b60405180910390fd5b60086000600154815260200190815260200160002084604051612a749190613b21565b908152602001604051809103902060009054906101000a900460ff1615612ad0576040517f08c379a0000000000000000000000000000000000000000000000000000000008152600401612ac7906144a8565b60405180910390fd5b600660006001548152602001908152602001600020600601600084815260200190815260200160002060009054906101000a900460ff16612b46576040517f08c379a0000000000000000000000000000000000000000000000000000000008152600401612b3d9061453a565b60405180910390fd5b600160086000600154815260200190815260200160002085604051612b6b9190613b21565b908152602001604051809103902060006101000a81548160ff021916908315150217905550600460008481526020019081526020016000206005016000815480929190612bb790613830565b91905055507f777e12406713e556f995ae7467576ea751d01f243ff84668ef43b36634f3fa888484604051612bed92919061455a565b60405180910390a150505050565b6008602052816000526040600020818051602081018201805184825260208301602085012081835280955050505050506000915091509054906101000a900460ff1681565b6000600980549050905090565b60008054906101000a900473ffffffffffffffffffffffffffffffffffffffff1681565b508054612c7d906139dc565b6000825580601f10612c8f5750612cae565b601f016020900490600052602060002090810190612cad9190612cb1565b5b50565b5b80821115612cca576000816000905550600101612cb2565b5090565b6000604051905090565b600080fd5b600080fd5b6000819050919050565b612cf581612ce2565b8114612d0057600080fd5b50565b600081359050612d1281612cec565b92915050565b600060208284031215612d2e57612d2d612cd8565b5b6000612d3c84828501612d03565b91505092915050565b60008115159050919050565b612d5a81612d45565b82525050565b6000602082019050612d756000830184612d51565b92915050565b612d8481612ce2565b82525050565b600081519050919050565b600082825260208201905092915050565b60005b83811015612dc4578082015181840152602081019050612da9565b60008484015250505050565b6000601f19601f8301169050919050565b6000612dec82612d8a565b612df68185612d95565b9350612e06818560208601612da6565b612e0f81612dd0565b840191505092915050565b7f4e487b7100000000000000000000000000000000000000000000000000000000600052602160045260246000fd5b60038110612e5a57612e59612e1a565b5b50565b6000819050612e6b82612e49565b919050565b6000612e7b82612e5d565b9050919050565b612e8b81612e70565b82525050565b600061010082019050612ea7600083018b612d51565b612eb4602083018a612d7b565b8181036040830152612ec68189612de1565b9050612ed56060830188612d7b565b612ee26080830187612e82565b612eef60a0830186612d7b565b612efc60c0830185612d7b565b612f0960e0830184612d7b565b9998505050505050505050565b6000608082019050612f2b6000830187612e82565b612f386020830186612d7b565b612f456040830185612d7b565b612f526060830184612d7b565b95945050505050565b60006020820190508181036000830152612f758184612de1565b905092915050565b600080fd5b600080fd5b7f4e487b7100000000000000000000000000000000000000000000000000000000600052604160045260246000fd5b612fbf82612dd0565b810181811067ffffffffffffffff82111715612fde57612fdd612f87565b5b80604052505050565b6000612ff1612cce565b9050612ffd8282612fb6565b919050565b600067ffffffffffffffff82111561301d5761301c612f87565b5b61302682612dd0565b9050602081019050919050565b82818337600083830152505050565b600061305561305084613002565b612fe7565b90508281526020810184848401111561307157613070612f82565b5b61307c848285613033565b509392505050565b600082601f83011261309957613098612f7d565b5b81356130a9848260208601613042565b91505092915050565b6000602082840312156130c8576130c7612cd8565b5b600082013567ffffffffffffffff8111156130e6576130e5612cdd565b5b6130f284828501613084565b91505092915050565b600060a08201905081810360008301526131158188612de1565b90506131246020830187612d7b565b81810360408301526131368186612de1565b9050818103606083015261314a8185612de1565b90506131596080830184612d7b565b9695505050505050565b600073ffffffffffffffffffffffffffffffffffffffff82169050919050565b600061318e82613163565b9050919050565b61319e81613183565b82525050565b600060c08201905081810360008301526131be8189612de1565b90506131cd6020830188613195565b6131da6040830187612d51565b6131e76060830186612d51565b6131f46080830185612d51565b61320160a0830184612d7b565b979650505050505050565b600060e082019050613221600083018a612d7b565b61322e6020830189612e82565b61323b6040830188612d51565b6132486060830187612d7b565b6132556080830186612d7b565b61326260a0830185612d7b565b61326f60c0830184612d7b565b98975050505050505050565b60006020820190506132906000830184612d7b565b92915050565b600067ffffffffffffffff8211156132b1576132b0612f87565b5b602082029050602081019050919050565b600080fd5b60006132da6132d584613296565b612fe7565b905080838252602082019050602084028301858111156132fd576132fc6132c2565b5b835b8181101561332657806133128882612d03565b8452602084019350506020810190506132ff565b5050509392505050565b600082601f83011261334557613344612f7d565b5b81356133558482602086016132c7565b91505092915050565b60006020828403121561337457613373612cd8565b5b600082013567ffffffffffffffff81111561339257613391612cdd565b5b61339e84828501613330565b91505092915050565b60006080820190506133bc6000830187612d51565b6133c96020830186612d51565b6133d66040830185612d51565b6133e36060830184612d7b565b95945050505050565b6133f581613183565b811461340057600080fd5b50565b600081359050613412816133ec565b92915050565b60006020828403121561342e5761342d612cd8565b5b600061343c84828501613403565b91505092915050565b6000806040838503121561345c5761345b612cd8565b5b600061346a85828601612d03565b925050602083013567ffffffffffffffff81111561348b5761348a612cdd565b5b61349785828601613084565b9150509250929050565b600080604083850312156134b8576134b7612cd8565b5b60006134c685828601612d03565b92505060206134d785828601612d03565b9150509250929050565b600060e0820190506134f6600083018a612d7b565b81810360208301526135088189612de1565b90506135176040830188612d7b565b81810360608301526135298187612de1565b9050818103608083015261353d8186612de1565b905061354c60a0830185612d7b565b61355960c0830184612d51565b98975050505050505050565b6000806000806080858703121561357f5761357e612cd8565b5b600085013567ffffffffffffffff81111561359d5761359c612cdd565b5b6135a987828801613084565b94505060206135ba87828801612d03565b935050604085013567ffffffffffffffff8111156135db576135da612cdd565b5b6135e787828801613084565b925050606085013567ffffffffffffffff81111561360857613607612cdd565b5b61361487828801613084565b91505092959194509250565b6000806040838503121561363757613636612cd8565b5b600083013567ffffffffffffffff81111561365557613654612cdd565b5b61366185828601613084565b925050602061367285828601612d03565b9150509250929050565b60006020820190506136916000830184613195565b92915050565b7f4f6e6c792061646d696e2063616e20706572666f726d2074686973206163746960008201527f6f6e000000000000000000000000000000000000000000000000000000000000602082015250565b60006136f3602283612d95565b91506136fe82613697565b604082019050919050565b60006020820190508181036000830152613722816136e6565b9050919050565b7f456c656374696f6e206d75737420626520656e64656420666972737400000000600082015250565b600061375f601c83612d95565b915061376a82613729565b602082019050919050565b6000602082019050818103600083015261378e81613752565b9050919050565b7f526573756c7420616c7265616479206465636c61726564000000000000000000600082015250565b60006137cb601783612d95565b91506137d682613795565b602082019050919050565b600060208201905081810360008301526137fa816137be565b9050919050565b7f4e487b7100000000000000000000000000000000000000000000000000000000600052601160045260246000fd5b600061383b82612ce2565b91507fffffffffffffffffffffffffffffffffffffffffffffffffffffffffffffffff820361386d5761386c613801565b5b600182019050919050565b7f4e6f2076616c69642077696e6e657220666f756e640000000000000000000000600082015250565b60006138ae601583612d95565b91506138b982613878565b602082019050919050565b600060208201905081810360008301526138dd816138a1565b9050919050565b60006060820190506138f96000830186612d7b565b6139066020830185612d7b565b6139136040830184612d7b565b949350505050565b7f43616e6e6f7420636c65617220636f6e74657374616e7473207768696c65206560008201527f6c656374696f6e20697320616374697665000000000000000000000000000000602082015250565b6000613977603183612d95565b91506139828261391b565b604082019050919050565b600060208201905081810360008301526139a68161396a565b9050919050565b7f4e487b7100000000000000000000000000000000000000000000000000000000600052602260045260246000fd5b600060028204905060018216806139f457607f821691505b602082108103613a0757613a066139ad565b5b50919050565b7f526567697374726174696f6e207068617365206973206e6f7420616374697665600082015250565b6000613a43602083612d95565b9150613a4e82613a0d565b602082019050919050565b60006020820190508181036000830152613a7281613a36565b9050919050565b7f434e49432063616e6e6f7420626520656d707479000000000000000000000000600082015250565b6000613aaf601483612d95565b9150613aba82613a79565b602082019050919050565b60006020820190508181036000830152613ade81613aa2565b9050919050565b600081905092915050565b6000613afb82612d8a565b613b058185613ae5565b9350613b15818560208601612da6565b80840191505092915050565b6000613b2d8284613af0565b915081905092915050565b7f566f74657220616c726561647920726567697374657265640000000000000000600082015250565b6000613b6e601883612d95565b9150613b7982613b38565b602082019050919050565b60006020820190508181036000830152613b9d81613b61565b9050919050565b7f526567697374726174696f6e20616c72656164792070656e64696e6700000000600082015250565b6000613bda601c83612d95565b9150613be582613ba4565b602082019050919050565b60006020820190508181036000830152613c0981613bcd565b9050919050565b7f57616c6c6574206164647265737320616c72656164792072656769737465726560008201527f6400000000000000000000000000000000000000000000000000000000000000602082015250565b6000613c6c602183612d95565b9150613c7782613c10565b604082019050919050565b60006020820190508181036000830152613c9b81613c5f565b9050919050565b60008190508160005260206000209050919050565b60006020601f8301049050919050565b600082821b905092915050565b600060088302613d047fffffffffffffffffffffffffffffffffffffffffffffffffffffffffffffffff82613cc7565b613d0e8683613cc7565b95508019841693508086168417925050509392505050565b6000819050919050565b6000613d4b613d46613d4184612ce2565b613d26565b612ce2565b9050919050565b6000819050919050565b613d6583613d30565b613d79613d7182613d52565b848454613cd4565b825550505050565b600090565b613d8e613d81565b613d99818484613d5c565b505050565b5b81811015613dbd57613db2600082613d86565b600181019050613d9f565b5050565b601f821115613e0257613dd381613ca2565b613ddc84613cb7565b81016020851015613deb578190505b613dff613df785613cb7565b830182613d9e565b50505b505050565b600082821c905092915050565b6000613e2560001984600802613e07565b1980831691505092915050565b6000613e3e8383613e14565b9150826002028217905092915050565b613e5782612d8a565b67ffffffffffffffff811115613e7057613e6f612f87565b5b613e7a82546139dc565b613e85828285613dc1565b600060209050601f831160018114613eb85760008415613ea6578287015190505b613eb08582613e32565b865550613f18565b601f198416613ec686613ca2565b60005b82811015613eee57848901518255600182019150602085019450602081019050613ec9565b86831015613f0b5784890151613f07601f891682613e14565b8355505b6001600288020188555050505b505050505050565b60006040820190508181036000830152613f3a8185612de1565b9050613f496020830184613195565b9392505050565b7f4e6f2070656e64696e6720726567697374726174696f6e20666f756e64000000600082015250565b6000613f86601d83612d95565b9150613f9182613f50565b602082019050919050565b60006020820190508181036000830152613fb581613f79565b9050919050565b7f436f6e74657374616e74206e6f7420666f756e64000000000000000000000000600082015250565b6000613ff2601483612d95565b9150613ffd82613fbc565b602082019050919050565b6000602082019050818103600083015261402181613fe5565b9050919050565b7f496e76616c696420656c656374696f6e20494400000000000000000000000000600082015250565b600061405e601383612d95565b915061406982614028565b602082019050919050565b6000602082019050818103600083015261408d81614051565b9050919050565b7f456c656374696f6e206973206e6f7420696e2043524541544544207374617465600082015250565b60006140ca602083612d95565b91506140d582614094565b602082019050919050565b600060208201905081810360008301526140f9816140bd565b9050919050565b60006040820190506141156000830185612d7b565b6141226020830184612d7b565b9392505050565b7f456c656374696f6e206d7573742068617665206174206c65617374203220636f60008201527f6e74657374616e74730000000000000000000000000000000000000000000000602082015250565b6000614185602983612d95565b915061419082614129565b604082019050919050565b600060208201905081810360008301526141b481614178565b9050919050565b7f4e487b7100000000000000000000000000000000000000000000000000000000600052603260045260246000fd5b7f496e76616c696420636f6e74657374616e740000000000000000000000000000600082015250565b6000614220601283612d95565b915061422b826141ea565b602082019050919050565b6000602082019050818103600083015261424f81614213565b9050919050565b7f456c656374696f6e206973206e6f742061637469766500000000000000000000600082015250565b600061428c601683612d95565b915061429782614256565b602082019050919050565b600060208201905081810360008301526142bb8161427f565b9050919050565b60006040820190506142d76000830185612d7b565b81810360208301526142e98184612de1565b90509392505050565b7f496e646578206f7574206f6620626f756e647300000000000000000000000000600082015250565b6000614328601383612d95565b9150614333826142f2565b602082019050919050565b600060208201905081810360008301526143578161431b565b9050919050565b7f566f746572206e6f742072656769737465726564000000000000000000000000600082015250565b6000614394601483612d95565b915061439f8261435e565b602082019050919050565b600060208201905081810360008301526143c381614387565b9050919050565b7f496e76616c696420766f7465722077616c6c6574000000000000000000000000600082015250565b6000614400601483612d95565b915061440b826143ca565b602082019050919050565b6000602082019050818103600083015261442f816143f3565b9050919050565b7f566f7465722068617320616c726561647920766f74656420696e20746869732060008201527f656c656374696f6e000000000000000000000000000000000000000000000000602082015250565b6000614492602883612d95565b915061449d82614436565b604082019050919050565b600060208201905081810360008301526144c181614485565b9050919050565b7f436f6e74657374616e74206e6f7420696e2063757272656e7420656c6563746960008201527f6f6e000000000000000000000000000000000000000000000000000000000000602082015250565b6000614524602283612d95565b915061452f826144c8565b604082019050919050565b6000602082019050818103600083015261455381614517565b9050919050565b600060408201905081810360008301526145748185612de1565b90506145836020830184612d7b565b939250505056fea2646970667358221220067a6668159369ca115f6c4c16964c679a1038a87beb9a48bce0e216e39fac8564736f6c63430008130033",
  "immutableReferences": {},
  "source": "// SPDX-License-Identifier: MIT\npragma solidity ^0.8.0;\n\ncontract VotingSystem {\n    struct Contestant {\n        uint256 id;\n        string name;\n        uint256 age;\n        string cnic;\n        string qualification;\n        uint256 voteCount;\n        bool isRegistered;\n    }\n\n    struct Voter {\n        string cnic;\n        address walletAddress;\n        bool isRegistered;\n        bool hasVoted;  // Keep for backward compatibility, but don't use\n        bool isApproved;\n        uint256 registrationTime;\n    }\n\n    // Updated Election struct - removed timing, added status\n    enum ElectionStatus { CREATED, ACTIVE, ENDED }\n    \n    struct Election {\n        uint256 id;\n        ElectionStatus status;\n        bool isResultDeclared;\n        uint256 winnerId;\n        uint256 createdTime;\n        uint256 startedTime;\n        uint256 endedTime;\n        mapping(uint256 => bool) contestants;\n    }\n\n    address public admin;\n    uint256 public currentElectionId;\n    uint256 public contestantCount;\n    bool public isRegistrationPhaseActive;\n    \n    mapping(uint256 => Contestant) public contestants;\n    mapping(string => Voter) public voters;\n    mapping(uint256 => Election) public elections;\n    mapping(address => bool) public registeredWallets;\n    \n    // NEW: Track votes per election to allow voting in multiple elections\n    mapping(uint256 => mapping(string => bool)) public hasVotedInElection;\n\n    // Array to keep track of pending voter registrations\n    string[] public pendingVoters;\n    mapping(string => bool) public isPendingVoter;\n\n    event VoterRegistrationSubmitted(string cnic, address walletAddress);\n    event VoterApproved(string cnic, address walletAddress);\n    event ContestantAdded(uint256 id, string name);\n    event ElectionCreated(uint256 id, uint256 createdTime);\n    event ElectionStarted(uint256 id, uint256 startedTime);\n    event ElectionEnded(uint256 id, uint256 endedTime);\n    event VoteCast(string voterCnic, uint256 contestantId);\n    event WinnerDeclared(uint256 electionId, uint256 winnerId, uint256 voteCount);\n    event RegistrationPhaseChanged(bool isActive);\n\n    modifier onlyAdmin() {\n        require(msg.sender == admin, \"Only admin can perform this action\");\n        _;\n    }\n\n    modifier registrationPhaseActive() {\n        require(isRegistrationPhaseActive, \"Registration phase is not active\");\n        _;\n    }\n\n    modifier electionActive(uint256 _electionId) {\n        require(elections[_electionId].status == ElectionStatus.ACTIVE, \"Election is not active\");\n        _;\n    }\n\n    constructor() {\n        admin = msg.sender;\n        currentElectionId = 0;\n        contestantCount = 0;\n    }\n\n    function startRegistrationPhase() public onlyAdmin {\n        isRegistrationPhaseActive = true;\n        emit RegistrationPhaseChanged(true);\n    }\n\n    function stopRegistrationPhase() public onlyAdmin {\n        isRegistrationPhaseActive = false;\n        emit RegistrationPhaseChanged(false);\n    }\n\n    function submitVoterRegistration(string memory _cnic) public registrationPhaseActive {\n        require(bytes(_cnic).length > 0, \"CNIC cannot be empty\");\n        require(!voters[_cnic].isRegistered, \"Voter already registered\");\n        require(!isPendingVoter[_cnic], \"Registration already pending\");\n        require(!registeredWallets[msg.sender], \"Wallet address already registered\");\n\n        // Add to pending voters\n        pendingVoters.push(_cnic);\n        isPendingVoter[_cnic] = true;\n\n        // Create voter record but mark as not approved\n        voters[_cnic] = Voter({\n            cnic: _cnic,\n            walletAddress: msg.sender,\n            isRegistered: false,\n            hasVoted: false,\n            isApproved: false,\n            registrationTime: block.timestamp\n        });\n\n        emit VoterRegistrationSubmitted(_cnic, msg.sender);\n    }\n\n    function approveVoter(string memory _cnic) public onlyAdmin {\n        require(isPendingVoter[_cnic], \"No pending registration found\");\n        require(!voters[_cnic].isRegistered, \"Voter already registered\");\n\n        Voter storage voter = voters[_cnic];\n        voter.isRegistered = true;\n        voter.isApproved = true;\n        registeredWallets[voter.walletAddress] = true;\n\n        // Remove from pending voters\n        isPendingVoter[_cnic] = false;\n\n        emit VoterApproved(_cnic, voter.walletAddress);\n    }\n\n    function rejectVoter(string memory _cnic) public onlyAdmin {\n        require(isPendingVoter[_cnic], \"No pending registration found\");\n\n        // Remove voter record\n        delete voters[_cnic];\n        isPendingVoter[_cnic] = false;\n    }\n\n    function getPendingVotersCount() public view returns (uint256) {\n        return pendingVoters.length;\n    }\n\n    function getPendingVoterAtIndex(uint256 index) public view returns (string memory) {\n        require(index < pendingVoters.length, \"Index out of bounds\");\n        return pendingVoters[index];\n    }\n\n    function getVoterStatus(string memory _cnic) public view returns (\n        bool isRegistered,\n        bool isPending,\n        bool isApproved,\n        uint256 registrationTime\n    ) {\n        Voter memory voter = voters[_cnic];\n        return (\n            voter.isRegistered,\n            isPendingVoter[_cnic],\n            voter.isApproved,\n            voter.registrationTime\n        );\n    }\n\n    // NEW: Function to check if voter has voted in specific election\n    function hasVoterVotedInElection(uint256 _electionId, string memory _cnic) public view returns (bool) {\n        return hasVotedInElection[_electionId][_cnic];\n    }\n\n    function addContestant(\n        string memory _name,\n        uint256 _age,\n        string memory _cnic,\n        string memory _qualification\n    ) public onlyAdmin {\n        contestantCount++;\n        contestants[contestantCount] = Contestant({\n            id: contestantCount,\n            name: _name,\n            age: _age,\n            cnic: _cnic,\n            qualification: _qualification,\n            voteCount: 0,\n            isRegistered: true\n        });\n\n        emit ContestantAdded(contestantCount, _name);\n    }\n\n    function clearContestants() public onlyAdmin {\n        require(currentElectionId == 0 || elections[currentElectionId].status != ElectionStatus.ACTIVE, \"Cannot clear contestants while election is active\");\n        \n        // Clear all contestants\n        for (uint256 i = 1; i <= contestantCount; i++) {\n            delete contestants[i];\n        }\n        contestantCount = 0;\n    }\n\n    // Updated createElection - no timing parameters needed\n    function createElection(uint256[] memory _contestantIds) public onlyAdmin {\n        require(_contestantIds.length >= 2, \"Election must have at least 2 contestants\");\n\n        currentElectionId++;\n        Election storage newElection = elections[currentElectionId];\n        newElection.id = currentElectionId;\n        newElection.status = ElectionStatus.CREATED;\n        newElection.createdTime = block.timestamp;\n\n        for (uint256 i = 0; i < _contestantIds.length; i++) {\n            require(contestants[_contestantIds[i]].isRegistered, \"Invalid contestant\");\n            newElection.contestants[_contestantIds[i]] = true;\n        }\n\n        emit ElectionCreated(currentElectionId, block.timestamp);\n    }\n\n    // New function: Start election manually\n    function startElection(uint256 _electionId) public onlyAdmin {\n        require(_electionId > 0 && _electionId <= currentElectionId, \"Invalid election ID\");\n        Election storage election = elections[_electionId];\n        require(election.status == ElectionStatus.CREATED, \"Election is not in CREATED state\");\n\n        election.status = ElectionStatus.ACTIVE;\n        election.startedTime = block.timestamp;\n        \n        emit ElectionStarted(_electionId, block.timestamp);\n    }\n\n    // New function: End election manually\n    function endElection(uint256 _electionId) public onlyAdmin {\n        require(_electionId > 0 && _electionId <= currentElectionId, \"Invalid election ID\");\n        Election storage election = elections[_electionId];\n        require(election.status == ElectionStatus.ACTIVE, \"Election is not active\");\n\n        election.status = ElectionStatus.ENDED;\n        election.endedTime = block.timestamp;\n\n        emit ElectionEnded(_electionId, block.timestamp);\n    }\n\n    // FIXED: Cast vote function now tracks voting per election\n    function castVote(string memory _voterCnic, uint256 _contestantId) public electionActive(currentElectionId) {\n        Voter storage voter = voters[_voterCnic];\n        require(voter.isRegistered, \"Voter not registered\");\n        require(voter.walletAddress == msg.sender, \"Invalid voter wallet\");\n        \n        // FIXED: Check if voter has voted in THIS specific election instead of globally\n        require(!hasVotedInElection[currentElectionId][_voterCnic], \"Voter has already voted in this election\");\n        require(elections[currentElectionId].contestants[_contestantId], \"Contestant not in current election\");\n\n        // FIXED: Mark as voted in THIS specific election only\n        hasVotedInElection[currentElectionId][_voterCnic] = true;\n        contestants[_contestantId].voteCount++;\n\n        emit VoteCast(_voterCnic, _contestantId);\n    }\n\n    function getContestantDetails(uint256 _contestantId) public view returns (\n        string memory name,\n        uint256 age,\n        string memory cnic,\n        string memory qualification,\n        uint256 voteCount\n    ) {\n        Contestant storage contestant = contestants[_contestantId];\n        require(contestant.isRegistered, \"Contestant not found\");\n        \n        return (\n            contestant.name,\n            contestant.age,\n            contestant.cnic,\n            contestant.qualification,\n            contestant.voteCount\n        );\n    }\n\n    // Updated getElectionStatus - returns status instead of timing\n    function getElectionStatus(uint256 _electionId) public view returns (\n        ElectionStatus status,\n        uint256 createdTime,\n        uint256 startedTime,\n        uint256 endedTime\n    ) {\n        Election storage election = elections[_electionId];\n        return (\n            election.status,\n            election.createdTime,\n            election.startedTime,\n            election.endedTime\n        );\n    }\n\n    function isContestantInElection(uint256 _electionId, uint256 _contestantId) public view returns (bool) {\n        return elections[_electionId].contestants[_contestantId];\n    }\n\n    // Updated declareWinner - no timing check needed\n    function declareWinner(uint256 _electionId) public onlyAdmin {\n        Election storage election = elections[_electionId];\n        require(election.status == ElectionStatus.ENDED, \"Election must be ended first\");\n        require(!election.isResultDeclared, \"Result already declared\");\n\n        uint256 maxVotes = 0;\n        uint256 winnerId = 0;\n\n        // Find contestant with maximum votes\n        for (uint256 i = 1; i <= contestantCount; i++) {\n            if (election.contestants[i] && contestants[i].voteCount > maxVotes) {\n                maxVotes = contestants[i].voteCount;\n                winnerId = i;\n            }\n        }\n\n        require(winnerId > 0, \"No valid winner found\");\n\n        election.isResultDeclared = true;\n        election.winnerId = winnerId;\n\n        emit WinnerDeclared(_electionId, winnerId, maxVotes);\n    }\n\n    // Updated getElectionResult\n    function getElectionResult(uint256 _electionId) public view returns (\n        bool isResultDeclared,\n        uint256 winnerId,\n        string memory winnerName,\n        uint256 winnerVotes,\n        ElectionStatus status,\n        uint256 createdTime,\n        uint256 startedTime,\n        uint256 endedTime\n    ) {\n        Election storage election = elections[_electionId];\n        \n        if (election.isResultDeclared) {\n            Contestant storage winner = contestants[election.winnerId];\n            return (\n                true,\n                election.winnerId,\n                winner.name,\n                winner.voteCount,\n                election.status,\n                election.createdTime,\n                election.startedTime,\n                election.endedTime\n            );\n        }\n        \n        return (\n            false,\n            0,\n            \"\",\n            0,\n            election.status,\n            election.createdTime,\n            election.startedTime,\n            election.endedTime\n        );\n    }\n} ",
  "sourcePath": "D:\\WORK\\git\\Blockchain-Based-Voting-System-main\\Block Vote\\contracts\\contracts\\VotingSystem.sol",
  "compiler": {
    "name": "solc",
    "version": "0.8.19+commit.7dd6d404.Emscripten.clang"
  },
  "schemaVersion": "3.4.16",
  "updatedAt": "2025-11-05T06:54:37.654Z",
  "networkType": "ethereum",
  "devdoc": {
    "kind": "dev",
    "methods": {},
    "version": 1
  },
  "userdoc": {
    "kind": "user",
    "methods": {},
    "version": 1
  }
}